:020000040800F2
:10000000680400200101000805110008FD10000827
:10001000011100082F0A0008E11700080000000085
:10002000000000000000000000000000991200081D
:10003000CD0D00080000000007110008BF130008E4
:100040001B0100081B0100081B0100081B01000820
:100050001B0100081B0100081B0100081B01000810
:100060001B0100081B0100081B0100081B01000800
:100070001B0100081B0100081B0100081B010008F0
:100080001B0100081B0100081B0100081B010008E0
:100090001B0100081B0100081B0100081B010008D0
:1000A0001B0100081B0100081B0100081B010008C0
:1000B0001B0100081B0100081B0100081B010008B0
:1000C0001B0100081B0100081B0100081B010008A0
:1000D0001B0100081B0100081B0100081B01000890
:1000E0001B0100081B0100081B010008DFF80CD0F1
:1000F00000F040FB004800471D2500086804002070
:100100000648804706480047FEE7FEE7FEE7FEE7B1
:10011000FEE7FEE7FEE7FEE7FEE7FEE7C91300089D
:10012000ED0000082DE9FE4F804681EA0300C00F74
:100130000C46009021F0004123F00045B8EB02008E
:10014000A94105D24046214690461C460B46024630
:1001500023F00040104347D0270DC7F30A00C3F334
:100160000A510290401A019040286BDAC3F3130041
:1001700040F4801B0098924620B10023D2EB030A82
:1001800063EB0B0B01985946C0F14002504600F05A
:10019000DDF906460D4650465946019A00F0E5F94C
:1001A00010EB08006141002487EA115284EAE773EA
:1001B0001A4340D0009A62B3019A012A4FEA0752CB
:1001C00015DC001B61EB02014FF0004202EA07520E
:1001D000CDE90042001C41F5801132462B4600F06B
:1001E0001CFA03B0BDE8F08F40462146F9E7001B3A
:1001F00061EB0201001C41F5801300185B412018DF
:10020000A2F5001747EB030140EAD570B6196D411E
:1002100011E06D084FEA360645EAC0754FEA07520D
:10022000001B61EB0201001C41F5801149084FEAF7
:1002300030000019514132462B4603B0BDE8F04F63
:1002400000F0DCB90098012240000023D0EB02024C
:1002500063EBE073009821464FEAE074B8EB0000CE
:1002600061EB0401E9E783F000435BE781F00041C3
:1002700058E72DE9FE4F81EA030404F0004421F021
:10028000004100944FF0000B23F0004350EA0104BA
:100290005ED052EA03045BD0C3F30A54C1F30A559B
:1002A0002C44A4F2F3340194A0FB0254C1F31301D3
:1002B00041F48011C3F3130343F4801301FB0244A0
:1002C00000FB034E840A970A44EA815447EA8357A5
:1002D000A4FB076802958D0A05FB07854FEA932C5E
:1002E00004FB0C542705029D4FEA065847EA1637CF
:1002F000B5EB08056EEB070C870E920E47EA8117E7
:1003000042EA8312A7FB0201B6EB0B0164EB000487
:100310002B0D43EA0C335E1844EB1C50DA46514671
:10032000E7FB0201C5F313044FEA0B3343EA14530E
:100330004FEA0432019C43EA0603A4F10C04029440
:10034000009CCDE900B400F068F903B0BDE8F08F7F
:1003500000200146F9E72DE9F04D81EA030404F09D
:10036000004B21F0004514464FF0000A23F00041F5
:1003700050EA050220D054EA01021DD0C5F30A5705
:100380000246C5F31303C1F31300C1F30A5640F448
:10039000801543F48013A7EB0608101BD64608F21D
:1003A000FD3873EB050002D308F1010801E0921853
:1003B0005B41B8F1000F03DA00200146BDE8F08D83
:1003C00000204FF48011064684460EE0171B73EBA5
:1003D000050705D3121B63EB050306434CEA010C2A
:1003E00049084FEA300092185B4150EA0107EDD10D
:1003F00052EA030012D082EA040083EA05010843AE
:1004000005D0101BAB4106D20122002306E00022DA
:100410004FF0004302E06FF0010253101AEB0600A8
:100420004CEB085110EB0A0041EB0B01BDE8F04D1D
:1004300000F0E4B896230022114600F0B1B80EB5E2
:10044000C10F80EAE0700844CA07002140F233433C
:100450008DE80E000A460B4600F0DFF803B000BD41
:1004600000F0004230F000400AD0C10D01F560718B
:10047000C0F3160042EA0151C20840071143704719
:1004800000200146704701F0004330B421F00041E4
:1004900050EA010206D00A0DA2F56072C1F3130101
:1004A000002A02DC30BC00207047440F44EAC1043B
:1004B000C100E01830BC00EBC25000F068B830B5A5
:1004C0000B46014600202022012409E021FA02F512
:1004D0009D4205D303FA02F5491B04FA02F52844AC
:1004E000151EA2F10102F1DC30BD2DE9F05F0546D9
:1004F000002092469B4688460646814640241BE0E3
:10050000284641464746224600F046F953465A4699
:10051000C01A914110D311461846224600F016F831
:100520002D1A67EB01084F4622460120002100F0FA
:100530000DF817EB00094E41201EA4F10104DFDC89
:10054000484631462A464346BDE8F09F202A04DB50
:10055000203A00FA02F1002070479140C2F12003D6
:1005600020FA03F3194390407047202A06DBCB178B
:10057000203A41FA02F043EAE07306E041FA02F35E
:10058000D040C2F12002914008431946704700292B
:10059000A8BF7047401C490008BF20F00100704709
:1005A00010B4B0FA80FC00FA0CF050EA010404BF69
:1005B00010BC704749B1CCF1200421FA04F411FABF
:1005C0000CF118BF012121430843A3EB0C01CB1D03
:1005D0004FEA00614FEA102042BF002010BC704774
:1005E00000EBC35010440029A4BF10BC7047401C4E
:1005F000490008BF20F0010010BC704710B5141E60
:1006000073F1000408DA401C41F1000192185B41CB
:100610001A4301D120F0010010BD2DE9F04D9246A2
:100620009B4611B1B1FA81F202E0B0FA80F22032B9
:100630009046FFF78BFF04460F4640EA0A0041EA66
:100640000B0153465A46084313D0114653EA0100A2
:1006500019D0C8F14002504600F09EF805460E46FB
:10066000504659464246FFF771FF084305D0012026
:1006700004E020463946BDE8F08D0020054346EAF7
:10068000E0762C4337430A986305E40AA0EB0800A0
:100690000022FD0A44EA47540A3002D500200146F0
:1006A000E9E7010510196941DDE9084500196941CB
:1006B000BDE8F04DA2E770B521F0004303430CD034
:1006C000C1F30A550024D5EB040564EB0403D617E7
:1006D000AD1AB34102DB0020014670BD201841EB8A
:1006E000025170BDC1F30A52C1F3130140F2FF334E
:1006F00041F480119A4202DA00200146704740F22C
:1007000033439A42A2F2334202DC524200F044B830
:10071000FFF71CBF30B5041E71F1000404DB4FF07D
:100720000044404264EB0101141E73F1000405DB38
:100730001C464FF00043524263EB04038B4208BF58
:10074000824230BD30B5041E71F1000404DB4FF06D
:100750000044404264EB0101141E73F1000405DB08
:100760001C464FF00043524263EB0403994208BF1A
:10077000904230BD064C074D06E0E06840F00103B2
:1007800094E8070098471034AC42F6D3FFF7B2FC68
:10079000B0260008D0260008202A04DB203A21FADF
:1007A00002F00021704721FA02F3D040C2F120028A
:1007B000914008431946704721B1826842F0010216
:1007C000826003E0826822F00102826070470000CC
:1007D00000B587B00121042000F0B6FC01214802D9
:1007E00000F0B2FCBF20ADF8040000208DF8070037
:1007F00001A9304800F0EBFA0020029001208DF8AA
:100800000C008DF80D004FF460200490002005903E
:1008100007208DF8180002A9274800F06FF805237B
:1008200001220021244800F091F805230222012131
:10083000214800F08BF80523032202211E4800F016
:1008400085F80523042203211B4800F07FF80523C7
:100850001A460421184800F079F8052306221946A3
:10086000154800F073F8052307221146124800F0DE
:100870006DF80121104800F021F801210E48FFF722
:100880009BFF0D4800F0BEF800BF0B4800F02BF8AE
:100890000028FAD1084800F0C5F800BF064800F06B
:1008A00018F80028FAD10121034800F0B0F807B089
:1008B00000BD0000000801400024014021B1826811
:1008C00042F48072826003E0826822F48072826067
:1008D0007047014600208A6802F004020AB1012034
:1008E00000E000207047014600208A6802F00802FC
:1008F0000AB1012000E000207047000030B5024638
:100900000020002350680F4C20400D790C6844EA09
:1009100005242043506090680B4C2040D1E90254DC
:100920002C434D7944EA450420439060D06A20F47A
:1009300070000C7C641EE4B2234340EA0350D06292
:1009400030BD0000FFFEF0FFFDF7F1FFF0B50446FB
:100950000D4600200021092D11DDE068A5F10A06F1
:1009600006EB4607072606FA07F18843A5F10A06B3
:1009700006EB460603FA06F10843E0600CE0206946
:1009800005EB4507072606FA07F1884305EB450600
:1009900003FA06F108432061072A0FDA606B561E3E
:1009A00006EB86071F2606FA07F18843561E06EB5C
:1009B000860605FA06F10843606322E00D2A0FDA85
:1009C000206BD61F06EB86071F2606FA07F1884321
:1009D000D61F06EB860605FA06F10843206310E0F1
:1009E000E06AA2F10D0606EB86071F2606FA07F15C
:1009F0008843A2F10D0606EB860605FA06F10843C8
:100A0000E062F0BD816841F008018160704721B16A
:100A1000826842F4A002826003E0826822F4A002AD
:100A200082607047816841F004018160704700BFB7
:100A3000FEE721B1026842F00102026004E00268B0
:100A40004FF6FE731A4002607047000000B58BB08D
:100A50000121084600F058FB104800F025F8104826
:100A60000090104801900020029007200390002081
:100A70000490802005904000069080000790202080
:100A80000890002009900A906946044800F0B2F8E6
:100A900001210248FFF7CDFF0BB000BD0800024066
:100AA0004C2401405400002001684FF6FE721140B2
:100AB00001600021016041608160C1604B49884252
:100AC00008D14A490839496841F00F01474A083AB4
:100AD00051608AE045491431884208D143490839B8
:100AE000496841F0F001414A083A51607DE03F49D0
:100AF0002831884208D13D490839496841F470617C
:100B00003A4A083A516070E038493C31884208D18D
:100B100036490839496841F47041344A083A51600D
:100B200063E032495031884208D130490839496878
:100B300041F470212D4A083A516056E02B49643146
:100B4000884208D129490839496841F47001274A87
:100B5000083A516049E025497831884208D1234953
:100B60000839496841F07061204A083A51603CE018
:100B70001F49884206D1011F096841F00F01021F79
:100B8000116032E01A491431884208D11849091F0E
:100B9000096841F0F001164A121F116025E014495E
:100BA0002831884208D11249091F096841F470614F
:100BB0000F4A121F116018E00D493C31884208D1DC
:100BC0000B49091F096841F47041094A121F11605D
:100BD0000BE007495031884207D10549091F0968D0
:100BE00041F47021024A121F116070470800024050
:100BF0000804024010B50022026847F6F0739A43D9
:100C00000C6A8B6823430C6923434C6923438C692A
:100C10002343CC6923434C6A23438C6A23431A43FE
:100C20000260CB6843600B6883604B68C36010BD93
:100C30002DE9F84F00F068F88346012000F0F4FB3E
:100C4000CC2000F08DF8442000F08AF84FF4487072
:100C500000F0EAFB00F058F88346012000F0E4FBC6
:100C6000CC2000F07DF8BE2000F07AF800F020F8EB
:100C70008DF8000000F01CF88DF801009DF801408F
:100C80009DF8000040EA04242046FFF7D3FB82468B
:100C9000FFF7E6FB07460022044BFFF75CFB054627
:100CA000FFF7F1FB81464846BDE8F88F0000304071
:100CB00070B500254021134800F064FB00241CE0BF
:100CC0004021104800F06BFB002240210D4800F04D
:100CD00014F9022000F08CFC40210A4800F052FB7D
:100CE0004021084800F0FEF818B10120A040284338
:100CF000C5B23C2000F07CFC641C082CE0DB2846DC
:100D000070BD00000008014010B50024012104203E
:100D100000F01AFA4021114800F041FB0022402166
:100D20000E4800F0EAF84FF4F07000F061FC40214A
:100D30000A4800F027FB502000F05AFC40210748E9
:100D400000F0D0F808B9012401E04FF0FF344FF46F
:100D5000C87000F04DFCE0B210BD0000000801407A
:100D600070B505464021184800F019FB002428E022
:100D70000120A040284098B14021134800F00FFB0B
:100D800000224021104800F0B8F8012000F030FCAB
:100D900040210D4800F0F6FA3C2000F029FC0FE05D
:100DA0004021094800F0FBFA00224021064800F0EB
:100DB000A4F83C2000F01CFC4021034800F0E2FABB
:100DC000641C082CD4DB70BD0008014070472DE97D
:100DD000F0410246002500260020002300240027C1
:100DE00091F803C00CF00F0591F803C00CF0100C43
:100DF000BCF1000F03D091F802C04CEA050591F850
:100E000000C0BCF1000F31D0146800202BE04FF07F
:100E1000010C0CFA00F3B1F800C00CEA03069E4284
:100E200020D183004FF00F0C0CFA03F7BC4305FAF6
:100E300003FC4CEA040491F803C0BCF1280F06D16E
:100E40004FF0010C0CFA00FCC2F814C00AE091F853
:100E500003C0BCF1480F05D14FF0010C0CFA00FCA7
:100E6000C2F810C0401C0828D1D31460B1F800C0EB
:100E7000BCF1FF0F34DD546800202EE000F1080CB7
:100E80004FF0010808FA0CF3B1F800C00CEA0306B1
:100E90009E4221D183004FF00F0C0CFA03F7BC43A4
:100EA00005FA03FC4CEA040491F803C0BCF1280FD6
:100EB00005D100F1080C08FA0CF8C2F8148091F87A
:100EC00003C0BCF1480F07D100F1080C4FF0010836
:100ED00008FA0CF8C2F81080401C0828CED35460E1
:100EE000BDE8F0810246002093680B400BB1012061
:100EF00000E000207047016170470AB1016100E025
:100F0000416170472DE9F04F87B0002006900590B1
:100F1000049032490889FFF78DFA8246FFF7A0FA5C
:100F200080464FF066322E4BFFF7A3F906460022AB
:100F30002C4BFFF710FA0446FFF7A5FA0690069827
:100F4000FFF78EFA4FF06632254BCDE90201FFF72D
:100F50008DF906460022244BFFF7FDF904460D46A5
:100F60000698FFF77DFA804622462B46FFF7F3F9F5
:100F70008246FFF788FA05900598FFF771FA064652
:100F80000022194BFFF7E7F9CDE9000101F018F94C
:100F900004460022154BFFF7DEF9154A154BCDE943
:100FA0000201FFF7BFF8804642460B460020124977
:100FB000FFF7D1F98246FFF766FA04900498FFF72D
:100FC0004FFA06464FF066320C4BFFF74CF90446D9
:100FD000FFF759FA07B0BDE8F08F00005400002079
:100FE00066660A400000B0400088C3400078AE400A
:100FF00083DBB5DCE1796B3F0000F03F66127140A6
:101000002DE9F04F87B000200690059004903249FA
:101010000889FFF70FFA8246FFF722FA80464FF061
:1010200066322E4BFFF725F9064600222C4BFFF7C0
:1010300092F90446FFF727FA06900698FFF710FA90
:101040004FF06632254BCDE90201FFF70FF9064656
:101050000022244BFFF77FF904460D460698FFF760
:10106000FFF9804622462B46FFF775F98246FFF7C7
:101070000AFA05900598FFF7F3F906460022194B86
:10108000FFF769F9CDE9000101F09AF80446002262
:10109000154BFFF760F9154A154BCDE90201FFF733
:1010A00041F8804642460B4600201249FFF753F9AB
:1010B0008246FFF7E8F904900498FFF7D1F9064655
:1010C0004FF066320C4BFFF7CEF80446FFF7DBF922
:1010D00007B0BDE8F08F00005400002066660A40AB
:1010E0000000B0400088C3400078AE4083DBB5DC30
:1010F000E1796B3F0000F03F6612714000BFFEE7F0
:1011000000BFFEE77047704729B1064A52690243A3
:10111000044B5A6104E0034A52698243014B5A610D
:10112000704700000010024029B1064AD26902430C
:10113000044BDA6104E0034AD2698243014BDA616D
:10114000704700000010024029B1064A926902432C
:10115000044B9A6104E0034A92698243014B9A610D
:10116000704700000010024030B50021002200242A
:1011700000232D4D6D6805F00C0121B1042905D027
:10118000082923D105E0294D056022E0274D05609F
:101190001FE0254D6D6805F47012234D6D6805F450
:1011A0008034022505EB92421CB9214D5543056060
:1011B0000BE01D4D6D6805F400351DB11C4D554308
:1011C000056002E0194D5543056002E0174D0560CA
:1011D00000BF00BF144D6D6805F0F0010909154D01
:1011E0006B5C0568DD4045600F4D6D6805F4E0619E
:1011F000090A104D6B5C4568DD4085600A4D6D68DD
:1012000005F46051C90A0B4D6B5C4568DD40C56053
:10121000054D6D6805F44041890B074D6B5CC56851
:10122000B5FBF3F5056130BD0010024000127A00F5
:1012300000093D00240000203400002070B5044661
:101240000D4600BF8021204600F04CFA0028F9D05E
:101250002946204600F0C0FA70BD00002DE9F0419B
:1012600007460D46164600240FE04FF480710948EA
:10127000FFF741FE295D3846FFF7E0FF601CC4B26E
:101280004FF480710348FFF736FEB442EDDBBDE852
:10129000F081000000080140704710B500F002F82E
:1012A00010BD00000CB5002001900090334800688C
:1012B00040F480303149086000BF3048006800F4D5
:1012C000003000900198401C0190009818B90198D6
:1012D000B0F5A06FF1D12948006800F4003010B1DA
:1012E0000120009001E0002000900098012843D1E7
:1012F0002348006840F01000214908600846006853
:1013000020F0030008600846006840F00200086012
:101310001A484068194948600846406848600846CD
:10132000406840F4806048600846406820F47C10C3
:1013300048600846406840F4E81048600846006885
:1013400040F08070086000BF0C48006800F000703A
:101350000028F9D00948406820F003000749486098
:101360000846406840F00200486000BF03484068FB
:1013700000F00C000828F9D10CBD0000001002405C
:101380000020024038B505460C4648208DF8030081
:10139000ADF8004069462846FFF719FD38BD38B55D
:1013A00005460C4610208DF80300ADF800400220E1
:1013B0008DF8020069462846FFF709FD38BD10B5D3
:1013C00000F026F910BD000010B51348006840F089
:1013D00001001149086008464068104908400E495C
:1013E0004860084600680E4908400B4908600846F6
:1013F000006820F4802008600846406820F4FE0061
:1014000048604FF41F008860FFF747FF4FF000600F
:101410000449086010BD0000001002400000FFF801
:10142000FFFFF6FE08ED00E00349086000BF024937
:1014300009680029FBD170473800002030B51E48EC
:1014400000684FF47A72B0FBF2F1B1F1807F01D302
:1014500001201DE021F07F40401E4FF0E02250614E
:1014600050170F22002807DA13071D0E134B00F048
:101470000F04241F1D5503E013071C0E104B1C54B2
:1014800000BF00204FF0E022906107201061002093
:1014900080B100BF09480C38006800F4E0600949D9
:1014A0000843001D05490C390860BFF34F8F00BF8A
:1014B00000BFFEE730BD00000000002018ED00E096
:1014C00000E400E00000FA050EB501210420FFF75A
:1014D0002BFE4FF6FF70ADF804004720ADF800007A
:1014E0000020ADF802006946084800F02FF80121FD
:1014F000064800F00DF801221146044800F01AF8E1
:101500000121024800F007F80EBD0000000800406D
:10151000CA430282704721B1028842F00102028070
:1015200004E002884FF6FE731A40028070470146BD
:10153000888C70471AB183890B43838102E08389C9
:101540008B438381704781847047000000220288AA
:101550001D4B98420ED01D4B98420BD0B0F1804FDE
:1015600008D01B4B984205D01A4B984202D01A4B18
:10157000984204D14FF68F731A404B881A43174B89
:10158000984207D0164B984204D04FF6FF431A40BA
:10159000CB881A4302808B8883850B8803850A4B8E
:1015A00098420BD0094B984208D00E4B984205D078
:1015B0000D4B984202D00D4B984201D10B7A038615
:1015C0000123838270470000002C01400034014059
:1015D0000004004000080040000C004000100040E3
:1015E0000014004000400140004401400048014018
:1015F00010B5044600210548FFF7A5FF00BF0348CA
:10160000FFF795FFA042FAD310BD0000000800408C
:101610000448006820B103480068401E0149086082
:10162000704700003800002021B1828942F4005246
:10163000828104E082894DF6FF731A4082817047EF
:1016400000B585B001218803FFF77EFD012104204C
:10165000FFF77AFD01210420FFF776FD01210846FE
:10166000FFF772FD4FF40070ADF8100018208DF8F0
:10167000130003208DF8120004A91848FFF7A7FBF8
:101680004FF48060ADF8100004208DF8130004A919
:101690001248FFF79CFB0020ADF80400ADF80600EF
:1016A000ADF808004FF4165000900C20ADF80A0079
:1016B0000020ADF80C006946094800F021F801212E
:1016C0000420FFF741FD4FF480710448FFF767FEE7
:1016D00001210348FFF7A8FF05B000BD0008014045
:1016E0000038014002460020B1F5007F00D100BF64
:1016F00013880B400BB1012000E000207047000070
:101700002DE9F04786B005460E460024A24600BFEC
:10171000A1460027B08900B100BF2F462C8A4CF6A5
:10172000FF700440F08804432C82AC894EF6F3101D
:101730000440B08831890843718908430443AC816F
:10174000AC8A4FF6FF400440B0890443AC8201A844
:10175000FFF70AFD1F48874202D1DDF810A001E023
:10176000DDF80CA0A88900F4004040B10AEBCA00E3
:1017700000EB0A1031684900B0FBF1F807E00AEB12
:10178000CA0000EB0A1031688900B0FBF1F8642050
:10179000B8FBF0F004012009642101FB1089A8893D
:1017A00000F4004040B1322000EBC900B0FBF1F082
:1017B00000F00700044308E0322000EB0910642128
:1017C000B0FBF1F000F00F0004432C8106B0BDE83F
:1017D000F087000000380140C1F3080282807047A2
:1017E00000BFFEE70FB4084B10B504A902AA039886
:1017F00000F04AF9044602A9002000F0DCFC204673
:1018000010BC5DF814FB0000B72100082DE9F04181
:101810004F1E00EBC7010446D1E9000115461E46E4
:1018200037F006020DD02A463346FEF722FD7F1E12
:1018300004EBC703D3E90023FEF774FC37F006027C
:10184000F1D1022F25D0042F13D0062F18BFBDE8E9
:10185000F0812A463346FEF70CFDD4E90A23FEF751
:1018600061FC2A463346FEF704FDD4E90823FEF75F
:1018700059FC2A463346FEF7FCFCD4E90623FEF762
:1018800051FC2A463346FEF7F4FCD4E90423FEF764
:1018900049FC2A463346FEF7ECFCD4E90223FEF766
:1018A00041FC2A463346FEF7E4FCD4E90023BDE8B8
:1018B000F041FEF737BC00000022134610460149F4
:1018C000FEF749BD0000F03F0122FEF7F4BE002202
:1018D000134610461146FEF73EBD02E008C8121F2F
:1018E00008C1002AFAD170477047002001E001C109
:1018F000121F002AFBD170470149086070470000A1
:101900003C0000202DE9FF5F82B00021DDE90430BA
:10191000020DDDF840B0034318D044F61050A2F297
:10192000FF3242431514119801281FD0A5EB0B007C
:10193000401C5FEA000A4FF000064E4FDFF8389176
:10194000B046504615D5CAF1000413E011980124A1
:101950004AA3012801D16FEA0B010298119AC0E94C
:101960000031C0E9024206B0BDE8F09FCBF10000B3
:10197000DFE704460021404A491842EB0450CDE914
:10198000001012E0E00707D032463B464046494689
:10199000FEF76FFC8046894632463B4610461946A4
:1019A000FEF767FC06460F466410002CEAD1DDE91D
:1019B0000401DDE90023BAF1000F06DAFEF759FC55
:1019C00042464B46FEF755FC05E0FEF7C4FC424696
:1019D0004B46FEF7C0FC04460E460022284BFEF79D
:1019E000B1FE03D84FF0FF30014607E00022254B3F
:1019F00020463146FEF796FBFEF774FE102409E000
:101A0000002C0ADB0A220023FEF76FFD039B303215
:101A10001A55641E50EA0102F2D1641C039AC4F103
:101A200011031444119A012A03D0012208430DD155
:101A30000AE0084304D000204FF0110B119072E728
:101A4000A3EB0B056D1E0DE05B4504DD4FF00002BE
:101A500005F1010504E003DA4FF00002A5F10105EC
:101A6000002AECD002981199C0E90231C0E9004582
:101A700079E70000000014400000F03F3000000053
:101A80000000F0430000E03F2DE9FF4F95B09B467A
:101A90008946064600250FE2252877D100242746EF
:101AA000F84A0121059400E0044316F8013F203B69
:101AB00001FA03F01042F7D130782A2811D06FF0E4
:101AC0002F033078A0F13002092A16D8059A44F085
:101AD000020402EB820203EB42021044761C0590E2
:101AE000EFE759F8042B0592002A03DA504244F438
:101AF0000054059044F00204761C30782E2816D14C
:101B000016F8010F44F004042A280DD06FF02F02BC
:101B10003078A0F13003092B09D807EB870302EBDB
:101B20004303C718761CF3E759F8047B761C30781A
:101B30006C280FD006DC4C2817D068280DD06A28F6
:101B400014D104E0742810D07A280FD10DE044F4A9
:101B500000140AE044F4801401E044F44014727864
:101B6000824202D104F58014761C761C30786628F7
:101B70000BD013DC582877D009DC002875D0452815
:101B8000F6D04628F4D047281AD19DE118E0632802
:101B900035D0642879D0652812D195E1702873D0AA
:101BA00008DC6728F1D069286FD06E280DD06F2827
:101BB00006D1B5E073282CD0752875D0782874D05C
:101BC0005A46179990476D1C75E1C4F302500228DC
:101BD00009D003280DD0D9F8001004280DD00D60CD
:101BE00009F1040967E1D9F80010EA17C1E90052C8
:101BF000F6E7D9F800100D80F2E70D70F0E719F85C
:101C0000041B8DF8001000208DF80100EA46012029
:101C100003E059F804AB4FF0FF3061074FF00001CB
:101C200002D40DE008F101018846B9420FDA80457F
:101C3000F8DB1AF808100029F4D108E008F10101D6
:101C400088468142FADB1AF808100029F6D1059877
:101C50005B46A0EB080721463846179A00F094FA35
:101C6000284400EB080507E04DE029E10DE01AF8F3
:101C7000010B5A4617999047B8F10108F7D25B4615
:101C800021463846179A13E142E00A220092C4F333
:101C900002524FF0000A022A08D059F804CB032A56
:101CA0004FEAEC710AD00DE029E02AE009F10701C2
:101CB00021F00702F2E802C1914609E00FFA8CFC1C
:101CC0004FEAEC71042A03D14FFA8CFC4FEAEC7115
:101CD000002907DA0A460021DCF1000C61EB020161
:101CE0002D2202E0220504D52B228DF804200122AA
:101CF00003E0E20701D02022F7E7904659E00A21ED
:101D000002E010220DE010214FF0000A00910BE0DC
:101D100010224FF0000A44F004040827009203E068
:101D200008224FF0000A0092C4F30252022A05D0A2
:101D300059F804CB0021032A08D009E009F1070172
:101D400021F00702F2E802C1914605E01FFA8CFC7F
:101D5000042A01D10CF0FF0C4FF00008220728D50F
:101D6000702806D0009B83F0100353EA0A0305D0C5
:101D70000EE040228DF80420012208E05CEA010216
:101D800006D030228DF804208DF8050002229046FE
:101D9000009B83F0080353EA0A030AD15CEA0102BC
:101DA00001D1620705D530228DF804204FF00108DB
:101DB0007F1E582804D034A003900EA802900DE096
:101DC00036A0F9E753466046009AFEF78EFB84463C
:101DD0000398825C0298401E029002705CEA010047
:101DE000F0D1029806A9081A00F1200A600702D56E
:101DF00024F4803400E00127574502DDA7EB0A00F8
:101E000000E0002000EB0A01009005984144401AD0
:101E10000590E00306D45B462146179A059800F02A
:101E2000B3F90544002706E001A85A46C05D17999A
:101E300090476D1C7F1C4745F6DBE0030CD55B46E5
:101E40002146179A059800F09FF9054404E03020D8
:101E50005A46179990476D1C0099481E009000291A
:101E6000F5DC08E0029802995A460078491C029174
:101E7000179990476D1CBAF10001AAF1010AF1DC33
:101E800065E100000928010030313233343536373E
:101E900038396162636465660000000030313233B6
:101EA0003435363738394142434445460000000056
:101EB00000F058F90544761C307800287FF4ECAD2A
:101EC00019B02846BDE8F08F620700D4062709F153
:101ED000070222F0070CFCE80223E14603F0004869
:101EE0005FEA080C02D00FF2702C0DE05FEA045C90
:101EF00002D50FF2682C07E05FEAC47C02D00FF233
:101F0000602C01E0AFF2700C4FF0FF3823F000437B
:101F1000CDF850C065280CD006DC452809D04628ED
:101F20001DD047283DD13DE0662818D067287ED1D6
:101F300038E00021112F01DB112000E0781CCDE9F1
:101F4000000106A90EA8FFF7DDFCDDE90F010E9ADE
:101F500003910021009207F1010A04914DE04FF036
:101F600000400097CDE9011006A90EA8FFF7CAFCB2
:101F7000DDE90F0203920E9B11990022DDF80CA0FF
:101F80000093049211B9791C00EB010AB7EB0A0027
:101F900004D4C0F1FF3007F1010A0490AAEB070056
:101FA000019044E0012F00DA01270021112F01DD0B
:101FB000112000E03846CDE9000106A90EA8FFF780
:101FC000A1FCDDE90F010E9A03910021049100921A
:101FD000BA4621070CD40399514500DA8A46BAF172
:101FE000010F05DD009AAAF10101515C302908D0EA
:101FF000B84202DA10F1040F06DA0121CDE901102E
:1020000015E0AAF10101E9E7002805DC0499014483
:102010000491AAEB000102E0411C514500DD8A4613
:102020000499401A401C01904FF000400290200794
:1020300004D40198504501DBCDF8048000208DF8D0
:102040004F0002980DF14F07B0F1004F25D02B2023
:102050000E9002984FF0020800280CDA40420290DD
:102060002D200E9007E00A210298FEF728FA303161
:10207000029007F8011DB8F10001A8F10108F2DC97
:1020800002980028EFD1791E0E980870307800F081
:10209000200040F0450007F8020D12A8C01B00F117
:1020A00007081498007800B1012000EB0A0101989C
:1020B00001EBE07105984144401A401E0590E00391
:1020C00006D45B462146179A059800F05DF8054452
:1020D0001498007818B15A46179990476D1CE00380
:1020E00024D55B462146179A059800F04DF8054423
:1020F0001CE00498002807DBDDE90301884203DDCA
:102100000098405C179901E0179930205A46904793
:10211000049805F10105401C04900198401E0190AF
:1021200004D12E205A46179990476D1CBAF1000130
:10213000AAF1010ADDDC05E017F8010B5A461799F0
:1021400090476D1CB8F10001A8F10108F4DC5B4672
:102150002146179A0598ABE62D0000002B000000E1
:10216000200000002DE9F041044600251E461746D8
:10217000880404D405E039462020B0476D1C641E55
:10218000F9D52846BDE8F0812DE9F0410446002547
:102190001E469046C80301D5302700E0202788045A
:1021A00004D505E041463846B0476D1C641EF9D59C
:1021B0002846BDE8F0810A68531C0B601070704718
:1021C0002DE9F04DC84A002490B0914205DA21F083
:1021D0000043934201D805D120B110B0BDE8F04DC5
:1021E000FFF772BBB1F5801F1BDA53EA000209D07A
:1021F000002911DA0120FFF77FFB10B0BDE8F04D98
:10220000FFF765BB0220FFF777FBFFF755FB10B028
:1022100081F00041BDE8F08D6FF035043622FEF705
:102220004AFA04EB2152C1F31308B049A2F2FF337A
:10223000414401F4801282F07F6103EB225281F06D
:102240004051009241EA08010022A94BFEF70BF829
:10225000044608F10200A74EC0F313000D467E4469
:10226000032867D2D6E900232046FEF753FA1ED191
:102270000098002802BFD6E9000110B0BDE8F08D3B
:10228000FEF7DDF807460C469B4A9C4BFDF7F1FF35
:1022900006460D469A4A9B4B38462146FDF7E9FF14
:1022A00010B032462B46BDE8F04DFDF73BBF4FF076
:1022B0005532954B20462946FDF7DBFF0022934B14
:1022C000FDF7D4FF06460F4622462B461046194618
:1022D000FDF7CFFF32463B46FDF7CBFF06460098A1
:1022E0000F46F0B1FEF7ABF880468A46824A834B30
:1022F000FDF7BFFF32463B46FDF7B8FF22462B46AF
:10230000FDF7B1FF05460C467D4A7E4B40465146DF
:10231000FDF7AFFF10B02A462346BDE8F04DFDF7AC
:10232000A2BF0B4610B0324620462946BDE8F04D0C
:10233000FDF799BF00224FF080432046FDF7F2FEE3
:1023400002460B4620462946FEF705F806460F468C
:102350000098FEF774F8CDE9040132463B4610467A
:102360003946FDF786FF0C9069480C9A404401906D
:1023700009910B461046FDF77CFF824602466548F0
:102380008B46C8F151080B4608F5D728032178443D
:10239000FFF73CFA52465B46FDF76BFF0A905E483A
:1023A0000D9152465B4604217844FFF72FFA099BB2
:1023B0000C9AFDF75EFF844601980D9B40EA0808E1
:1023C00060460A9AFDF7AEFE83460891B8F1000F09
:1023D0004EDD4FF0FF3220462946FEF76CF92246CB
:1023E0002B46FDF746FF804600988A4660B3DDE93C
:1023F0000401414A414BFDF73CFF099100905A46C8
:1024000040465146089BFDF78DFE32463B46FDF7A0
:1024100030FF099B009AFDF785FE42465346FDF7C3
:1024200025FF22462B46FDF71EFF04460D46DDE93B
:102430000401334A334BFDF71CFF10B022462B46F4
:10244000BDE8F04DFDF70FBF5A464046089BFDF72B
:1024500069FE32463B46FDF70CFF42465346FDF708
:1024600005FF10B022462B46BDE8F04DFDF7FEBE3D
:10247000009840B3DDE904011F4A204BFDF7F9FE47
:1024800080468A465A4620462946089BFDF7EBFEC1
:1024900032463B46FDF7EDFE42465346FDF7E3FE6E
:1024A00022462B46FDF7DFFE04460D46DDE904011A
:1024B000134A144BFDF7DDFE10B022462B46BDE853
:1024C000F04DFDF7D0BE0B465A4620462946FDF793
:1024D000CAFE32463B46FDF7CCFE10B022462B46E4
:1024E000BDE8F04DFDF7C2BE0000F07F645F09005B
:1024F0000000F03F46040000763C7935EF39EA3DB4
:102500000000E0FE422EE63F5555D53F0000E03F7B
:1025100086EBF9FFDE020000DC02000086B0FEF769
:102520008DFFFEF7D1FFFFF78BF8FEF78FFAFEF76E
:102530004FF976E04FF0000AFEF77AFB3949086060
:10254000394989884FF4FA6201FB02F0FDF777FF01
:1025500006460022354BFDF7FEFE0446FDF793FFCD
:102560003349086033480068FDF77AFF804600224F
:10257000314BFDF778FE0646304A314BFDF779FEC8
:102580000022304BCDE90001FDF7CCFD04460D469D
:1025900027480068FDF764FF22462B46CDE902017B
:1025A000FDF7D9FECDE90401FDF76DFF2049086074
:1025B000FEF7A8FC1F490860FEF722FD22490860CB
:1025C0001C480068FDF74CFF04460D46184800689B
:1025D000FDF746FF00221D4B8DE833001CA121486A
:1025E000FFF700F9002005E01E49095C51441FFA7D
:1025F00081FA401C1B49095C0029F5D14FEA1A20D9
:102600001849487481F812A07A20C874002008750F
:1026100014221548FEF722FE4FF47A70FEF704FFED
:1026200000BF87E714000020540000200000B040E5
:102630002000002018000020000039408B6CE7FBD0
:10264000A9F1923F0000F03F1C00002000001E4056
:102650006125342E31662C25362E31662C25342EFC
:1026600031660000400000200038014000000000FA
:1026700004FA97999999D93FAF788E1DC571CC3FCF
:102680009FC678D0099AC33F935555555555E53F98
:10269000599322942449D23FDE03CB966446C73F28
:1026A00044523EDF12F1C23F000000000000000073
:1026B000D02600080000002040000000DA180008C2
:1026C000102700084000002028040000EA18000835
:1026D00000A24A0400000000000000000102030400
:1026E00006070809000000000000000000000000CC
:1026F00000000000000000000102030401020304C6
:102700000607080902040608000000000000000097
:04000005080000ED02
:00000001FF
