:020000040800F2
:100000004804002001010008B90B0008B10B0008EA
:10001000B50B0008970600089112000800000000C8
:10002000000000000000000000000000490D000872
:10003000790A000800000000BB0B00086F0E0008E2
:100040001B0100081B0100081B0100081B01000820
:100050001B0100081B0100081B0100081B01000810
:100060001B0100081B0100081B0100081B01000800
:100070001B0100081B0100081B0100081B010008F0
:100080001B0100081B0100081B0100081B010008E0
:100090001B0100081B0100081B0100081B010008D0
:1000A0001B0100081B0100081B0100081B010008C0
:1000B0001B0100081B0100081B0100081B010008B0
:1000C0001B0100081B0100081B0100081B010008A0
:1000D0001B0100081B0100081B0100081B01000890
:1000E0001B0100081B0100081B010008DFF80CD0F1
:1000F00000F066F900480047B114000848040020E9
:100100000648804706480047FEE7FEE7FEE7FEE7B1
:10011000FEE7FEE7FEE7FEE7FEE7FEE7790E0008F2
:10012000ED0000082DE9F04D81EA030404F0004BD6
:1001300021F0004514464FF0000A23F0004150EA38
:10014000050220D054EA01021DD0C5F30A57024629
:10015000C5F31303C1F31300C1F30A5640F480152D
:1001600043F48013A7EB0608101BD64608F2FD38AF
:1001700073EB050002D308F1010801E092185B411E
:10018000B8F1000F03DA00200146BDE8F08D002031
:100190004FF48011064684460EE0171B73EB0507EB
:1001A00005D3121B63EB050306434CEA010C490817
:1001B0004FEA300092185B4150EA0107EDD152EA54
:1001C000030012D082EA040083EA0501084305D047
:1001D000101BAB4106D20122002306E000224FF0A3
:1001E000004302E06FF0010253101AEB06004CEBE3
:1001F000085110EB0A0041EB0B01BDE8F04D00F097
:1002000081B896230022114600F04EB800F000425B
:1002100030F000400AD0C10D01F56071C0F3160046
:1002200042EA0151C20840071143704700200146CD
:10023000704701F0004330B421F0004150EA010260
:1002400006D00A0DA2F56072C1F31301002A02DC88
:1002500030BC00207047440F44EAC104C100E018DC
:1002600030BC00EBC25000F016B830B50B4601466A
:1002700000202022012409E021FA02F59D4205D345
:1002800003FA02F5491B04FA02F52844151EA2F1EF
:100290000102F1DC30BD0029A8BF7047401C4900B5
:1002A00008BF20F00100704710B4B0FA80FC00FADB
:1002B0000CF050EA010404BF10BC704749B1CCF106
:1002C000200421FA04F411FA0CF118BF0121214392
:1002D0000843A3EB0C01CB1D4FEA00614FEA10204D
:1002E00042BF002010BC704700EBC35010440029EF
:1002F000A4BF10BC7047401C490008BF20F001009B
:1003000010BC704710B5141E73F1000408DA401CCD
:1003100041F1000192185B411A4301D120F0010024
:1003200010BD2DE9F04D92469B4611B1B1FA81F214
:1003300002E0B0FA80F22032904600F053F8044612
:100340000F4640EA0A0041EA0B0153465A46084369
:1003500013D0114653EA010019D0C8F140025046AB
:1003600000F04FF805460E4650465946424600F00A
:1003700039F8084305D0012004E020463946BDE89D
:10038000F08D0020054346EAE0762C4337430A9877
:100390006305E40AA0EB08000022FD0A44EA475482
:1003A0000A3002D500200146E9E70105101969412C
:1003B000DDE9084500196941BDE8F04DA2E70000FC
:1003C000064C074D06E0E06840F0010394E80700A2
:1003D00098471034AC42F6D3FFF78CFE3C1500086A
:1003E0005C150008202A04DB203A00FA02F1002004
:1003F00070479140C2F1200320FA03F31943904063
:100400007047202A04DB203A21FA02F000217047CD
:1004100021FA02F3D040C2F120029140084319466C
:10042000704721B1826842F00102826003E0826875
:1004300022F001028260704700B587B001210420DC
:1004400000F0DCFB0121480200F0D8FBBF20ADF832
:10045000040000208DF8070001A9304800F00DFBD2
:100460000020029001208DF80C008DF80D004FF453
:10047000602004900020059007208DF8180002A944
:10048000274800F06FF8052301220021244800F0DE
:1004900091F8052302220121214800F08BF8052361
:1004A000032202211E4800F085F8052304220321BF
:1004B0001B4800F07FF805231A460421184800F075
:1004C00079F8052306221946154800F073F805232C
:1004D00007221146124800F06DF80121104800F083
:1004E00021F801210E48FFF79CFF0D4800F0BEF8EF
:1004F00000BF0B4800F02BF80028FAD1084800F0A4
:10050000C5F800BF064800F018F80028FAD101210C
:10051000034800F0B0F807B000BD0000000801403B
:100520000024014021B1826842F48072826003E0BD
:10053000826822F4807282607047014600208A68D7
:1005400002F004020AB1012000E0002070470146D9
:1005500000208A6802F008020AB1012000E00020B1
:100560007047000030B502460020002350680F4C51
:1005700020400D790C6844EA0524204350609068BF
:100580000B4C2040D1E902542C434D7944EA4504F8
:1005900020439060D06A20F470000C7C641EE4B2AA
:1005A000234340EA0350D06230BD0000FFFEF0FF5D
:1005B000FDF7F1FFF0B504460D4600200021092D9E
:1005C00011DDE068A5F10A0606EB4607072606FAE4
:1005D00007F18843A5F10A0606EB460603FA06F181
:1005E0000843E0600CE0206905EB4507072606FAA2
:1005F00007F1884305EB450603FA06F1084320613D
:10060000072A0FDA606B561E06EB86071F2606FACE
:1006100007F18843561E06EB860605FA06F10843E5
:10062000606322E00D2A0FDA206BD61F06EB8607E7
:100630001F2606FA07F18843D61F06EB860605FA41
:1006400006F10843206310E0E06AA2F10D0606EB14
:1006500086071F2606FA07F18843A2F10D0606EB6E
:10066000860605FA06F10843E062F0BD816841F0B4
:1006700008018160704721B1826842F4A002826063
:1006800003E0826822F4A00282607047816841F032
:1006900004018160704700BFFEE721B1026842F0AB
:1006A0000102026004E002684FF6FE731A40026025
:1006B0007047000000B58BB00121084600F07EFABB
:1006C000104800F025F810480090104801900020D4
:1006D00002900720039000200490802005904000A5
:1006E00006908000079020200890002009900A9032
:1006F0006946044800F0B2F801210248FFF7CDFF37
:100700000BB000BD080002404C2401403400002022
:1007100001684FF6FE7211400160002101604160E6
:100720008160C1604B49884208D14A49083949680B
:1007300041F00F01474A083A51608AE045491431B7
:10074000884208D143490839496841F0F001414ADB
:10075000083A51607DE03F492831884208D13D493F
:100760000839496841F470613A4A083A516070E0CA
:1007700038493C31884208D136490839496841F442
:100780007041344A083A516063E03249503188423E
:1007900008D130490839496841F470212D4A083A96
:1007A000516056E02B496431884208D12949083903
:1007B000496841F47001274A083A516049E02549E7
:1007C0007831884208D123490839496841F070617D
:1007D000204A083A51603CE01F49884206D1011F77
:1007E000096841F00F01021F116032E01A4914310B
:1007F000884208D11849091F096841F0F001164ADA
:10080000121F116025E014492831884208D112498D
:10081000091F096841F470610F4A121F116018E046
:100820000D493C31884208D10B49091F096841F440
:100830007041094A121F11600BE00749503188428C
:1008400007D10549091F096841F47021024A121FA6
:1008500011607047080002400804024010B50022F1
:10086000026847F6F0739A430C6A8B6823430C695D
:1008700023434C6923438C692343CC6923434C6A4B
:1008800023438C6A23431A430260CB6843600B689E
:1008900083604B68C36010BD2DE9FC5F00F08AF8EF
:1008A00004468323224A23A126A0009400F0F2FCF0
:1008B000012000F011FBCC2000F0A8F8442000F04B
:1008C000A5F84FF4487000F007FB00F073F80446F9
:1008D0008A23174A17A11BA0009400F0DBFC01201B
:1008E00000F0FAFACC2000F091F8BE2000F08EF86B
:1008F00000F034F88DF8040000F030F88DF80500B1
:100900009DF805909DF8040040EA09294846FFF744
:1009100078FC8346FFF77AFC074600220E4BFFF770
:1009200001FC0546FFF785FC82465046BDE8FC9F6A
:10093000291500084D796C69625C445331384232A4
:10094000302E630025733A202025733A2020256439
:100950003A200A25640A00000000304070B50025E6
:100960004021134800F066FA00241CE040211048A2
:1009700000F06DFA002240210D4800F014F9022029
:1009800000F08EFB40210A4800F054FA402108484C
:1009900000F0FEF818B10120A0402843C5B23C2069
:1009A00000F07EFB641C082CE0DB284670BD0000D4
:1009B0000008014010B500240121042000F01EF9B8
:1009C0004021114800F043FA002240210E4800F077
:1009D000EAF84FF4F07000F063FB40210A4800F0A1
:1009E00029FA502000F05CFB4021074800F0D0F8C5
:1009F00008B9012401E04FF0FF344FF4C87000F053
:100A00004FFBE0B210BD00000008014070B5054684
:100A10004021184800F01BFA002428E00120A040E3
:100A2000284098B14021134800F011FA00224021DB
:100A3000104800F0B8F8012000F032FB40210D48CA
:100A400000F0F8F93C2000F02BFB0FE040210948B2
:100A500000F0FDF900224021064800F0A4F83C20F7
:100A600000F01EFB4021034800F0E4F9641C082C50
:100A7000D4DB70BD0008014070472DE9F04102460B
:100A800000250026002000230024002791F803C041
:100A90000CF00F0591F803C00CF0100CBCF1000F26
:100AA00003D091F802C04CEA050591F800C0BCF1F2
:100AB000000F31D0146800202BE04FF0010C0CFA2D
:100AC00000F3B1F800C00CEA03069E4220D1830077
:100AD0004FF00F0C0CFA03F7BC4305FA03FC4CEA89
:100AE000040491F803C0BCF1280F06D14FF0010CAB
:100AF0000CFA00FCC2F814C00AE091F803C0BCF183
:100B0000480F05D14FF0010C0CFA00FCC2F810C0E0
:100B1000401C0828D1D31460B1F800C0BCF1FF0F0D
:100B200034DD546800202EE000F1080C4FF001087D
:100B300008FA0CF3B1F800C00CEA03069E4221D17A
:100B400083004FF00F0C0CFA03F7BC4305FA03FCCB
:100B50004CEA040491F803C0BCF1280F05D100F160
:100B6000080C08FA0CF8C2F8148091F803C0BCF124
:100B7000480F07D100F1080C4FF0010808FA0CF8F3
:100B8000C2F81080401C0828CED35460BDE8F08124
:100B90000246002093680B400BB1012000E00020CA
:100BA0007047016170470AB1016100E0416170471F
:100BB00000BFFEE700BFFEE77047704729B1064A55
:100BC00052690243044B5A6104E0034A526982436A
:100BD000014B5A61704700000010024029B1064ADB
:100BE000D2690243044BDA6104E0034AD2698243CA
:100BF000014BDA61704700000010024029B1064A3B
:100C000092690243044B9A6104E0034A9269824369
:100C1000014B9A61704700000010024030B500217E
:100C20000022002400232D4D6D6805F00C0121B138
:100C3000042905D0082923D105E0294D056022E0CB
:100C4000274D05601FE0254D6D6805F47012234D9A
:100C50006D6805F48034022505EB92421CB9214DE4
:100C6000554305600BE01D4D6D6805F400351DB161
:100C70001C4D5543056002E0194D5543056002E0E7
:100C8000174D056000BF00BF144D6D6805F0F00101
:100C90000909154D6B5C0568DD4045600F4D6D68B9
:100CA00005F4E061090A104D6B5C4568DD40856024
:100CB0000A4D6D6805F46051C90A0B4D6B5C4568BF
:100CC000DD40C560054D6D6805F44041890B074D59
:100CD0006B5CC568B5FBF3F5056130BD00100240E3
:100CE00000127A0000093D001800002028000020B2
:100CF00070B504460D4600BF8021204600F04AFA38
:100D00000028F9D02946204600F0BEFA70BD000048
:100D100070B505460C4600260FE04FF48071094877
:100D2000FFF73FFF14F8011B2846FFF7E1FF761C91
:100D30004FF480710348FFF734FF20780028ECD18E
:100D400070BD000000080140704710B500F002F8C7
:100D500010BD00000CB500200190009033480068E1
:100D600040F480303149086000BF3048006800F42A
:100D7000003000900198401C0190009818B901982B
:100D8000B0F5A06FF1D12948006800F4003010B12F
:100D90000120009001E0002000900098012843D13C
:100DA0002348006840F010002149086008460068A8
:100DB00020F0030008600846006840F00200086068
:100DC0001A48406819494860084640684860084623
:100DD000406840F4806048600846406820F47C1019
:100DE00048600846406840F4E810486008460068DB
:100DF00040F08070086000BF0C48006800F0007090
:100E00000028F9D00948406820F0030007494860ED
:100E10000846406840F00200486000BF0348406850
:100E200000F00C000828F9D10CBD000000100240B1
:100E30000020024038B505460C4648208DF80300D6
:100E4000ADF8004069462846FFF717FE38BD38B5B3
:100E500005460C4610208DF80300ADF80040022036
:100E60008DF8020069462846FFF707FE38BD10B529
:100E700000F026F910BD000010B51348006840F0DE
:100E800001001149086008464068104908400E49B1
:100E90004860084600680E4908400B49086008464B
:100EA000006820F4802008600846406820F4FE00B6
:100EB00048604FF41F008860FFF747FF4FF0006065
:100EC0000449086010BD0000001002400000FFF857
:100ED000FFFFF6FE08ED00E00349086000BF02498D
:100EE00009680029FBD170472C00002030B51E484E
:100EF00000684FF47A72B0FBF2F1B1F1807F01D358
:100F000001201DE021F07F40401E4FF0E0225061A3
:100F100050170F22002807DA13071D0E134B00F09D
:100F20000F04241F1D5503E013071C0E104B1C5407
:100F300000BF00204FF0E0229061072010610020E8
:100F400080B100BF09480C38006800F4E06009492E
:100F50000843001D05490C390860BFF34F8F00BFDF
:100F600000BFFEE730BD00000000002018ED00E0EB
:100F700000E400E00000FA050EB501210420FFF7AF
:100F80002DFE4FF6FF70ADF804004720ADF80000CD
:100F90000020ADF802006946084800F02FF8012152
:100FA000064800F00DF801221146044800F01AF836
:100FB0000121024800F007F80EBD000000080040C3
:100FC000CA430282704721B1028842F001020280C6
:100FD00004E002884FF6FE731A4002807047014613
:100FE000888C70471AB183890B43838102E083891F
:100FF0008B43838170478184704700000022028800
:101000001D4B98420ED01D4B98420BD0B0F1804F33
:1010100008D01B4B984205D01A4B984202D01A4B6D
:10102000984204D14FF68F731A404B881A43174BDE
:10103000984207D0164B984204D04FF6FF431A400F
:10104000CB881A4302808B8883850B8803850A4BE3
:1010500098420BD0094B984208D00E4B984205D0CD
:101060000D4B984202D00D4B984201D10B7A03866A
:101070000123838270470000002C014000340140AE
:101080000004004000080040000C00400010004038
:10109000001400400040014000440140004801406D
:1010A00010B5044600210548FFF7A5FF00BF03481F
:1010B000FFF795FFA042FAD310BD000000080040E2
:1010C0000448006820B103480068401E01490860D8
:1010D000704700002C00002021B1828942F40052A8
:1010E000828104E082894DF6FF731A408281704745
:1010F00000B585B001218803FFF780FD01210420A0
:10110000FFF77CFD01210420FFF778FD012108464F
:10111000FFF774FD4FF40070ADF8100018208DF843
:10112000130003208DF8120004A91848FFF7A5FC4E
:101130004FF48060ADF8100004208DF8130004A96E
:101140001248FFF79AFC0020ADF80400ADF8060045
:10115000ADF808004FF4E13000900C20ADF80A0023
:101160000020ADF80C006946094800F021F8012183
:101170000420FFF743FD4FF480710448FFF767FE3A
:1011800001210348FFF7A8FF05B000BD000801409A
:101190000038014002460020B1F5007F00D100BFB9
:1011A00013880B400BB1012000E0002070470000C5
:1011B0002DE9F04786B005460E460024A24600BF42
:1011C000A1460027B08900B100BF2F462C8A4CF6FB
:1011D000FF700440F08804432C82AC894EF6F31073
:1011E0000440B08831890843718908430443AC81C5
:1011F000AC8A4FF6FF400440B0890443AC8201A89A
:10120000FFF70CFD1F48874202D1DDF810A001E076
:10121000DDF80CA0A88900F4004040B10AEBCA0038
:1012200000EB0A1031684900B0FBF1F807E00AEB67
:10123000CA0000EB0A1031688900B0FBF1F86420A5
:10124000B8FBF0F004012009642101FB1089A88992
:1012500000F4004040B1322000EBC900B0FBF1F0D7
:1012600000F00700044308E0322000EB091064217D
:10127000B0FBF1F000F00F0004432C8106B0BDE894
:10128000F087000000380140C1F3080282807047F7
:1012900000BFFEE70FB4054B10B503A9044A02983E
:1012A00000F018F810BC5DF814FB00008D14000865
:1012B0003000002002E008C8121F08C1002AFAD13D
:1012C00070477047002001E001C1121F002AFBD1C6
:1012D000704700002DE9FF4F8BB09A460F46054638
:1012E000002606E025280BD052460D9990476D1C2C
:1012F000761C28780028F5D10FB03046BDE8F08F75
:101300000024A0460122604900E0044315F8013F93
:10131000203B02FA03F00842F7D128782E2817D193
:1013200015F8010F44F004042A280ED06FF02F02A4
:101330002878A0F1300109290AD808EB880102EBCE
:10134000410100EB01086D1CF2E757F8048B6D1C9E
:10135000287869283ED006DC0028CDD063280BD041
:10136000642804D136E0732810D075284BD052463B
:101370000D999047761C85E017F8040B8DF8000056
:1013800000208DF80100E946012003E057F8049B96
:101390004FF0FF3061074FF0000401D40AE0641CF5
:1013A00044450DDA8442FADB19F804100029F6D11D
:1013B00006E0641C8442FCDB19F804100029F8D113
:1013C000264404E019F8010B52460D999047641E1B
:1013D000F8D257E001CF4FF00A0B002802DA404262
:1013E0002D2102E0210504D52B218DF824100121A7
:1013F00003E0E10705D02021F7E70DF1200908916E
:101400000CE00021F9E701CF4FF00A0BF9E759464C
:10141000FEF72BFF01F1300209F8012D0028F6D16B
:10142000ADEB090000F1200B600701D44FF001087B
:10143000D84502DDA8EB0B0000E000208046002428
:1014400006E009A85246005D0D999047641C761C81
:1014500008988442F5DB04E0302052460D9990470D
:10146000761CB8F10001A8F10108F5DC05E019F8D7
:10147000010B52460D999047761CBBF10001ABF170
:10148000010BF4DC6D1C34E70928010070B504463B
:101490000D46E1B20548FFF7F7FE00BF40210348C3
:1014A000FFF778FE0028F9D0204670BD00380140D3
:1014B000FFF71CFDFFF760FDFFF71AFEFFF7FAF8D4
:1014C000FEF7BAFF0EE0022207A10B48FFF720FC4F
:1014D00023230A4A0AA10DA0FFF7DCFEFFF7DCF97F
:1014E0000F490860EFE700005669656E206465707B
:1014F0002074726169000000003801402415000862
:101500005372635C6D61696E2E63000025733A202F
:101510002025733A202025643A200A5669656E001A
:10152000140000206D61696E00445331384232303E
:101530005F47657454656D70000000005C1500081D
:101540000000002034000000B412000890150008CC
:101550003400002014040000C412000800A24A0451
:101560000000000000000000010203040607080953
:101570000000000000000000010203040102030457
:101580000607080902040608000000000000000029
:04000005080000ED02
:00000001FF
